:020000040000FA
:10000000700400206D020000710200007302000005
:100010007502000077020000790200000000000075
:100020000000000000000000000000007B02000053
:100030007D020000000000007F0200002D0A000089
:10004000830200008302000083020000910500008B
:10005000830200008302000083020000830200008C
:10006000830200008302000083020000830200007C
:10007000830200008302000083020000830200006C
:10008000830200008302000083020000830200005C
:10009000830200008302000083020000830200004C
:1000A000830200008302000083020000830200003C
:1000B0008302000083020000ED06000083020000BE
:1000C000830200008302000083020000830200001C
:1000D000830200008302000083020000830200000C
:1000E00083020000830200008302000083020000FC
:1000F00083020000830200008302000083020000EC
:1001000083020000830200008302000083020000DB
:1001100083020000830200008302000083020000CB
:1001200083020000830200008302000083020000BB
:1001300083020000830200008302000083020000AB
:1001400000000000000000000000000000000000AF
:10015000830200008302000083020000830200008B
:10016000000000000000000000000000000000008F
:10017000000000000000000000000000000000007F
:10018000000000000000000000000000000000006F
:10019000000000000000000000000000000000005F
:1001A000000000000000000000000000000000004F
:1001B000830200008302000083020000830200002B
:1001C000830200008302000083020000830200001B
:1001D000830200008302000083020000830200000B
:1001E00083020000830200008302000083020000FB
:1001F00083020000830200008302000083020000EB
:10020000830200008302000083020000000000005F
:1002100083020000830200008302000083020000CA
:1002200083020000830200008302000083020000BA
:1002300083020000830200008302000083020000AA
:10024000830200008302000083020000830200009A
:10025000830200008302000083020000830200008A
:1002600083020000830200008302000000F00AB84D
:10027000FEE7FEE7FEE7FEE7FEE7FEE7FEE7FEE756
:10028000FEE7FEE700F002F800F03AF80AA090E876
:10029000000C82448344AAF10107DA4501D100F041
:1002A0002FF8AFF2090EBAE80F0013F0010F18BFD4
:1002B000FB1A43F001031847A4210000C4210000E9
:1002C000103A24BF78C878C1FAD8520724BF30C882
:1002D00030C144BF04680C60704700000023002454
:1002E00000250026103A28BF78C1FBD8520728BF46
:1002F00030C148BF0B6070471FB51FBD10B510BDA2
:1003000000F029F81146FFF7F7FF00F0D7FB00F0E7
:1003100047F803B4FFF7F2FF03BC00F04FF800000A
:1003200072B6704762B67047EFF3108072B67047CE
:1003300080F31088704730BF704702480249014A75
:10034000024B7047700000207004002070000020F5
:10035000704770477047754600F02CF8AE460500B0
:100360006946534620F00700854618B020B5FFF7D0
:10037000E4FFBDE820404FF000064FF000074FF0CB
:1003800000084FF0000BAC46ACE8C009ACE8C0096F
:10039000ACE8C009ACE8C00921F007018D46704700
:1003A00010B50446AFF300802046BDE81040FFF7CB
:1003B000B0BF000000487047080000200149182025
:1003C000ABBEFEE726000200704700004EF20811A7
:1003D000C4F20F01086840F02000086045F2205187
:1003E000C4F2020144F24B30C4F64F40086045F2BB
:1003F0002451C4F20201086840F01100086045F27F
:100400000041C4F20201086820F01100086045F2C2
:100410002041C4F20201086820F01100086045F292
:100420001C51C4F20201086840F01100086045F256
:100430002C51C4F20201086820F00F10086045F248
:100440002851C4F202010020086045F21051C4F2A4
:100450000201086840F01100086045F20441C4F24E
:100460000201086820F01100086045F20841C4F25A
:100470000201086820F01100086045F20C41C4F246
:100480000201086820F01100086045F21C41C4F226
:100490000201086840F01100086045F21041C4F202
:1004A0000201086840F0110008604EF21C41CEF2D3
:1004B00000010868052262F3575008604EF20011EF
:1004C000CEF20001086840F08040086070470000EC
:1004D0004EF20811C4F20F01086840F002000860F3
:1004E00045F22851C4F20001086820F03F0008607E
:1004F00045F22C51C4F20001086800F07F4008600A
:1005000045F20041C4F20001086840F03F00086075
:1005100045F22041C4F20001086820F03F00086065
:1005200045F21C51C4F20001086840F03F00086029
:1005300045F20851C4F20001086840F03F0008602D
:100540004EF21001CEF20001002008604EF620525B
:10055000CEF200021068202363F31F601060086869
:1005600040F006000860704782B0ADF80600BDF8A4
:1005700006004FF4C86148430090FFE7009820B19F
:10058000FFE7009801380090F8E702B070470000DC
:1005900080B582B000200190FFE7019841F6134139
:1005A000C0F20101884205D8FFE7FFE7019801305A
:1005B0000190F2E700208DF8030047F2FC30C4F20E
:1005C00000000068000738B1FFE740F20001C2F206
:1005D0000001012008700EE047F21C41C4F2000146
:1005E000086840F00F00086040F20001C2F200010C
:1005F00000200870FFE747F21440C4F200000068D2
:10060000C00760B1FFE700208DF8030047F21C41EE
:10061000C4F20001086840F00100086041E047F2C0
:100620001440C4F200000068800700280CD5FFE7E2
:1006300001208DF8030047F21C41C4F20001086854
:1006400040F0020008602BE047F21440C4F20000C2
:100650000068400700280CD5FFE702208DF8030052
:1006600047F21441C4F20001086840F00400086039
:1006700015E047F21440C4F20000006800070028AB
:100680000CD5FFE703208DF8030047F21C41C4F2AC
:100690000001086840F008000860FFE7FFE7FFE797
:1006A000FFE79DF8030040F26C01C2F200010978F7
:1006B000C1EBC10108448DF8030040F20000C2F212
:1006C00000000078C00760B1FFE79DF8031042F218
:1006D000EC30C0F2000050F82100800900F082F9EF
:1006E00002E000F099F9FFE702B080BD81B0002080
:1006F0000090FFE7009841F61341C0F201018842E3
:1007000005D8FFE7FFE7009801300090F2E745F2D7
:100710001440C4F202000068C006002837D5FFE785
:1007200040F26900C2F20000007878B9FFE740F2B9
:100730006901C2F200010120087047F21041C4F2C1
:100740000001086820F00F00086017E040F269001F
:10075000C2F20000007801280FD1FFE740F26901E2
:10076000C2F200010020087047F21041C4F20001FB
:10077000086840F00F000860FFE7FFE745F21C4102
:10078000C4F20201086840F0100008605CE045F225
:100790001440C4F20200006840F26901C2F2000194
:1007A0000978B1FA81F1490908421AD0FFE740F20D
:1007B0006C01C2F20001087801304AF6AB22CAF699
:1007C000AA22A0FB0232520802EB4202801A0870F1
:1007D00045F21C41C4F20201086840F001000860C3
:1007E00031E045F21440C4F20200006840F26901B1
:1007F000C2F2000109780139B1FA81F149090842D0
:1008000020D0FFE740F26B01C2F20001087801300E
:100810004AF6AB22CAF6AA22A0FB0232520802EB29
:100820004202801A087040F26A01C2F20001002000
:10083000087045F21C41C4F20201086840F0010052
:100840000860FFE7FFE7FFE701B070472DE9F04FD1
:1008500083B04EF20810C4F20F00016841F00801A5
:10086000016047F20042C4F200020092116821F0D8
:100870000F01116047F22042C4F200020192116898
:1008800021F00F01116047F21C5BC4F2000BDBF892
:10089000001041F00F01CBF8001047F22C5AC4F2BF
:1008A000000ADAF800104FF6FF729143CAF8001000
:1008B00047F22858C4F2000800210291C8F800103D
:1008C00047F21457C4F20007396841F00F0139604C
:1008D00047F20446C4F20006316821F00F0131608E
:1008E00047F20845C4F20005296841F00F0129606C
:1008F00047F20C44C4F20004216821F00F0121608A
:1009000047F21C4EC4F2000EDEF8001041F00F0159
:10091000CEF8001047F2104CC4F2000CDCF80010C6
:1009200041F00F01CCF800104EF20042CEF200026E
:100930001168052363F35F7111604EF20011CEF26E
:100940000001D1F8009049F00809C1F80090D0F8F2
:10095000009049F01009C0F800900098D0F800907D
:1009600029F00309C0F800900198D0F8009029F010
:100970000309C0F800900298DBF8009049F00309E1
:10098000CBF80090DAF8009029F0FF09CAF800903F
:10099000C8F80000386840F003003860306820F084
:1009A00003003060286840F003002860206820F0D1
:1009B00003002060DEF8000040F00300CEF80000E5
:1009C000DCF8000040F00300CCF80000106863F38E
:1009D0005F701060086840F01000086003B0BDE868
:1009E000F08F000081B00090009801384EF21401A1
:1009F000CEF2000108604EF21801CEF20001002094
:100A000008604EF21001CEF20001086840F00100CB
:100A1000086001B0704700004EF21001CEF20001F4
:100A2000086820F0010008607047000040F268008C
:100A3000C2F200000178013101F03F01017001783C
:100A400040F6C230C0F20000405C45F21C01C4F226
:100A5000000108607047000040F26B00C2F2000025
:100A60000078C0EB002140F60440C0F2000000EB2B
:100A7000C10040F26A01C2F20001097800EBC10036
:100A80000079704740F26B00C2F200000078C0EBC2
:100A9000002140F60440C0F2000000EBC10040F22B
:100AA0006A01C2F20001097810F8310070470000B5
:100AB00040F26900C2F200000078704780B582B051
:100AC00000200190FFF72CFCFFF702FDFFF77EFCF2
:100AD000FFF7BCFEFFF726FCFFE7FFF7E9FF014643
:100AE000009120B1FFE70098012803D005E0FFF74F
:100AF00022FC03E000F004F800E0FFE7EDE700006F
:100B000080B582B000208DF80700FFF7A5FF8DF8B3
:100B100006006420FFF728FDFFE79DF8061000207F
:100B2000009059B1FFE740F26900C2F2000000787E
:100B30000138B0FA80F040090090FFE70098C00744
:100B4000B8B3FFE7FFF79EFF8DF807009DF8070099
:100B5000FF2803D1FFE7FFF75FFF13E09DF80700D1
:100B600040F26C01C2F200010978C1EBC1010144FD
:100B700042F2EC30C0F2000050F821008009FFF78B
:100B800031FFFFE79DF8060064214843FFF7ECFCC6
:100B9000FFF742FF1920FFF7E7FC40F26A01C2F2BB
:100BA0000001087801300870FFF756FF8DF8060045
:100BB000B3E740F26A01C2F200010020087002B0FF
:100BC00080BD202326292C2F313436383A3B3D3E38
:100BD0003E3F3F3F3E3E3D3B3A383634312F2C2995
:100BE0002623201D1A1714110F0C0A0806050302EC
:100BF000020101010202030506080A0C0F11141775
:100C00001A1D0000020000000400000001000000A6
:100C100004000000000000000400000001000000CB
:100C200004000000020000000400000002000000B8
:100C300004000000020000000800000001000000A5
:100C4000040000000100000004000000010000009A
:100C50000800000002000000040000000400000082
:100C60000400000004000000080000000200000072
:100C7000040000000100000004000000000000006B
:100C80000400000001000000040000000200000059
:100C90000400000002000000040000000200000048
:100CA0000800000001000000040000000100000036
:100CB0000400000002000000040000000100000029
:100CC0000400000000000000080000000000000018
:100CD0000000000000000000000000000000000014
:100CE0000000000000000000000000000000000004
:100CF00000000000000000000000000000000000F4
:100D000000000000000000000000000000000000E3
:1014000004000000000000000400000004000000D0
:1014100004000000040000000400000005000000BB
:1014200004000000050000000400000004000000AB
:10143000080000000300000004000000030000009A
:101440000400000002000000040000000200000090
:101450000400000001000000040000000100000082
:10146000040000000000000008000000040000006C
:10147000040000000400000004000000030000005D
:10148000040000000300000004000000020000004F
:101490000400000002000000040000000100000041
:1014A0000800000004000000040000000400000028
:1014B000040000000300000004000000030000001E
:1014C0000400000002000000040000000200000010
:1014D00004000000010000000800000000000000FF
:1014E00004000000000000000400000004000000F0
:1014F00004000000040000000400000005000000DB
:1015000004000000050000000400000004000000CA
:1015100008000000030000000400000003000000B9
:1015200004000000020000000400000002000000AF
:1015300004000000010000000400000001000000A1
:10154000040000000000000008000000000000008F
:10155000000000000000000000000000000000008B
:10156000000000000000000000000000000000007B
:10157000000000000000000000000000000000006B
:10158000000000000000000000000000000000005B
:101BF00000000000040000000200000004000000DB
:101C000002000000050000000400000004000000C5
:101C100004000000070000000400000006000000AF
:101C200004000000FF0000000400000004000000A9
:101C30000200000004000000020000000500000097
:101C40000400000004000000040000000800000080
:101C5000040000000700000004000000FF00000076
:101C60000400000004000000020000000400000066
:101C7000020000000B00000004000000090000004A
:101C8000040000000700000004000000060000003F
:101C9000040000000500000008000000FF00000034
:101CA000040000000A000000020000000A0000001A
:101CB000020000000900000004000000070000000E
:101CC00004000000080000000400000007000000FD
:101CD00008000000FF0000000000000000000000FD
:101CE00000000000000000000000000000000000F4
:101CF00000000000000000000000000000000000E4
:101D000000000000000000000000000000000000D3
:101D100000000000000000000000000000000000C3
:1023E00000000000000000000000000019DD0100F6
:1023F0002CA90100CA7A010025650100E13E010017
:10240000171C010009FD00008CEE000096D40000AE
:1024100064BD000016B30000709F00000C8E000029
:10242000847E0000727700006A6A0000CE5E0000C1
:102430007C590000B84F000006470000463F0000EE
:10244000BA3B000034350000662F0000BE2C0000AF
:10245000DC27000082230000A41F00007C24000071
:102460000000002004000000C002000080240000E2
:102470000800002068040000DC02000001000000E9
:040000050000026D88
:00000001FF
