:020000040000FA
:10000000700400206D020000710200007302000005
:100010007502000077020000790200000000000075
:100020000000000000000000000000007B02000053
:100030007D020000000000007F0200009508000023
:1000400083020000830200008302000069050000B3
:10005000830200008302000083020000830200008C
:10006000830200008302000083020000830200007C
:10007000830200008302000083020000830200006C
:10008000830200008302000083020000830200005C
:10009000830200008302000083020000830200004C
:1000A000830200008302000083020000830200003C
:1000B0008302000083020000B506000083020000F6
:1000C000830200008302000083020000830200001C
:1000D000830200008302000083020000830200000C
:1000E00083020000830200008302000083020000FC
:1000F00083020000830200008302000083020000EC
:1001000083020000830200008302000083020000DB
:1001100083020000830200008302000083020000CB
:1001200083020000830200008302000083020000BB
:1001300083020000830200008302000083020000AB
:1001400000000000000000000000000000000000AF
:10015000830200008302000083020000830200008B
:10016000000000000000000000000000000000008F
:10017000000000000000000000000000000000007F
:10018000000000000000000000000000000000006F
:10019000000000000000000000000000000000005F
:1001A000000000000000000000000000000000004F
:1001B000830200008302000083020000830200002B
:1001C000830200008302000083020000830200001B
:1001D000830200008302000083020000830200000B
:1001E00083020000830200008302000083020000FB
:1001F00083020000830200008302000083020000EB
:10020000830200008302000083020000000000005F
:1002100083020000830200008302000083020000CA
:1002200083020000830200008302000083020000BA
:1002300083020000830200008302000083020000AA
:10024000830200008302000083020000830200009A
:10025000830200008302000083020000830200008A
:1002600083020000830200008302000000F00AB84D
:10027000FEE7FEE7FEE7FEE7FEE7FEE7FEE7FEE756
:10028000FEE7FEE700F002F800F03AF80AA090E876
:10029000000C82448344AAF10107DA4501D100F041
:1002A0002FF8AFF2090EBAE80F0013F0010F18BFD4
:1002B000FB1A43F0010318470C0700002C0700004D
:1002C000103A24BF78C878C1FAD8520724BF30C882
:1002D00030C144BF04680C60704700000023002454
:1002E00000250026103A28BF78C1FBD8520728BF46
:1002F00030C148BF0B6070471FB51FBD10B510BDA2
:1003000000F029F81146FFF7F7FF00F0DFFA00F0E0
:1003100047F803B4FFF7F2FF03BC00F04FF800000A
:1003200072B6704762B67047EFF3108072B67047CE
:1003300080F31088704730BF704702480249014A75
:10034000024B7047700000207004002070000020F5
:10035000704770477047754600F02CF8AE460500B0
:100360006946534620F00700854618B020B5FFF7D0
:10037000E4FFBDE820404FF000064FF000074FF0CB
:1003800000084FF0000BAC46ACE8C009ACE8C0096F
:10039000ACE8C009ACE8C00921F007018D46704700
:1003A00010B50446AFF300802046BDE81040FFF7CB
:1003B000B0BF000000487047080000200149182025
:1003C000ABBEFEE726000200704700004EF20811A7
:1003D000C4F20F01086840F02000086045F2205187
:1003E000C4F2020144F24B30C4F64F40086045F2BB
:1003F0002451C4F20201086840F01100086045F27F
:100400000041C4F20201086820F01100086045F2C2
:100410002041C4F20201086820F01100086045F292
:100420001C51C4F20201086840F01100086045F256
:100430002C51C4F20201086820F00F10086045F248
:100440002851C4F202010020086045F21051C4F2A4
:100450000201086840F01100086045F20441C4F24E
:100460000201086820F01100086045F20841C4F25A
:100470000201086820F01100086045F20C41C4F246
:100480000201086820F01100086045F21C41C4F226
:100490000201086840F01100086045F21041C4F202
:1004A0000201086840F0110008604EF21C41CEF2D3
:1004B00000010868052262F3575008604EF20011EF
:1004C000CEF20001086840F08040086070470000EC
:1004D0004EF20811C4F20F01086840F002000860F3
:1004E00045F22851C4F20001086820F03F0008607E
:1004F00045F22C51C4F20001086800F07F4008600A
:1005000045F20041C4F20001086840F03F00086075
:1005100045F22041C4F20001086820F03F00086065
:1005200045F21C51C4F20001086840F03F00086029
:1005300045F20851C4F20001086840F03F0008602D
:100540004EF21001CEF20001002008604EF620525B
:10055000CEF200021068202363F31F601060086869
:1005600040F006000860704780B582B0002001901E
:10057000FFE7019841F61341C0F20101884205D816
:10058000FFE7FFE7019801300190F2E700208DF8C6
:10059000030047F2FC30C4F200000068000738B1E5
:1005A000FFE740F20001C2F200010120087006E0FE
:1005B00040F20001C2F2000100200870FFE747F29C
:1005C0001440C4F200000068C00760B1FFE70020DB
:1005D0008DF8030047F21C41C4F20001086840F0A6
:1005E0000100086040E047F21440C4F200000068D7
:1005F000800700280CD5FFE701208DF8030047F2A3
:100600001C41C4F20001086840F0020008602AE0C2
:1006100047F21440C4F200000068800760B1FFE7B1
:1006200002208DF8030047F21441C4F2000108686B
:1006300040F00300086015E047F21440C4F20000E7
:100640000068400700280CD5FFE70A208DF803005A
:1006500047F21C41C4F20001086840F00400086041
:10066000FFE7FFE7FFE7FFE79DF8030040F26A01BD
:10067000C2F200010978C1EBC10108448DF8030002
:1006800040F20000C2F200000078C00760B1FFE74E
:100690009DF8031040F65410C0F2000050F82100FD
:1006A000800900F0D3F802E000F0EAF8FFE702B0BA
:1006B00080BD000081B000200090FFE7009841F667
:1006C0001341C0F20101884205D8FFE7FFE7009817
:1006D00001300090F2E745F21440C4F202000068D5
:1006E000C006002812D5FFE740F26901C2F20001FE
:1006F0000878B0FA80F04009087045F21C41C4F255
:100700000201086840F0100008602AE045F2144039
:10071000C4F20200006840F26901C2F200010978E7
:10072000B1FA81F1490908421AD0FFE740F26A01A3
:10073000C2F20001087801304AF6AB22CAF6AA22BA
:10074000A0FB0232520802EB4202801A087045F206
:100750001C41C4F20201086840F001000860FFE794
:10076000FFE701B0704700004EF20811C4F20F011C
:10077000086840F00800086047F20041C4F2000138
:10078000086820F00F00086047F22041C4F2000121
:10079000086820F00F00086047F21C51C4F2000105
:1007A000086840F00F00086047F22C51C4F20001C5
:1007B00008684FF6FF729043086047F22851C4F270
:1007C00000010020086047F21051C4F200010868DF
:1007D00020F00F00086047F20441C4F200010868ED
:1007E00020F00F00086047F20841C4F200010868D9
:1007F00040F00F00086047F20C41C4F200010868A5
:1008000020F00F00086047F21C41C4F200010868A4
:1008100040F00F00086047F21041C4F20001086880
:1008200040F00F0008604EF20041CEF2000108686F
:10083000052262F35F7008604EF20011CEF20001F3
:10084000086840F0080008607047000081B0009020
:10085000009801384EF21401CEF2000108604EF209
:100860001801CEF20001002008604EF21001CEF215
:100870000001086840F00100086001B07047000006
:100880004EF21001CEF20001086820F0010008606D
:100890007047000040F26800C2F2000001780131A8
:1008A00001F03F010170017840F61210C0F2000023
:1008B000405C45F21C01C4F2000108607047000072
:1008C00040F26900C2F200000078704780B582B043
:1008D00000200190FFF724FDFFF7FAFDFFF776FDFA
:1008E000FFF742FFFFF71EFDFFE7FFF7E9FF0146B5
:1008F000009120B1FFE70098012803D005E0FFF741
:100900001AFD03E000F004F800E0FFE7EDE7000067
:100910007047202326292C2F313436383A3B3D3E70
:100920003E3F3F3F3E3E3D3B3A383634312F2C2947
:100930002623201D1A1714110F0C0A08060503029E
:10094000020101010202030506080A0C0F11141727
:100950001A1D000019DD01002CA90100CA7A01004E
:1009600025650100E13E0100171C010009FD0000A2
:100970008CEE000096D4000064BD000016B30000A9
:10098000709F00000C8E0000847E000072770000D3
:100990006A6A0000CE5E00007C590000B84F00007B
:1009A00006470000463F0000BA3B00003435000017
:1009B000662F0000BE2C0000DC2700008223000010
:1009C000A41F0000E4090000000000200400000053
:1009D000C0020000E80900000800002068040000D0
:0809E000DC0200000100000030
:040000050000026D88
:00000001FF
