:020000040000FA
:10000000680400206D02000071020000730200000D
:100010007502000077020000790200000000000075
:100020000000000000000000000000007B02000053
:100030007D020000000000007F0200004507000074
:10004000830200008302000083020000830200009C
:10005000830200008302000083020000830200008C
:10006000830200008302000083020000830200007C
:10007000830200008302000083020000830200006C
:10008000830200008302000083020000830200005C
:10009000830200008302000083020000830200004C
:1000A000830200008302000083020000830200003C
:1000B0008302000083020000D903000083020000D5
:1000C000830200008302000083020000830200001C
:1000D000830200008302000083020000830200000C
:1000E00083020000830200008302000083020000FC
:1000F00083020000830200008302000083020000EC
:1001000083020000830200008302000083020000DB
:1001100083020000830200008302000083020000CB
:1001200083020000830200008302000083020000BB
:1001300083020000830200008302000083020000AB
:1001400000000000000000000000000000000000AF
:10015000830200008302000083020000830200008B
:10016000000000000000000000000000000000008F
:10017000000000000000000000000000000000007F
:10018000000000000000000000000000000000006F
:10019000000000000000000000000000000000005F
:1001A000000000000000000000000000000000004F
:1001B000830200008302000083020000830200002B
:1001C000830200008302000083020000830200001B
:1001D000830200008302000083020000830200000B
:1001E00083020000830200008302000083020000FB
:1001F00083020000830200008302000083020000EB
:10020000830200008302000083020000000000005F
:1002100083020000830200008302000083020000CA
:1002200083020000830200008302000083020000BA
:1002300083020000830200008302000083020000AA
:10024000830200008302000083020000830200009A
:10025000830200008302000083020000830200008A
:1002600083020000830200008302000000F00AB84D
:10027000FEE7FEE7FEE7FEE7FEE7FEE7FEE7FEE756
:10028000FEE7FEE700F002F800F02CF80AA090E884
:10029000000C82448344AAF10107DA4501D100F041
:1002A00021F8AFF2090EBAE80F0013F0010F18BFE2
:1002B000FB1A43F001031847780800008808000083
:1002C0000023002400250026103A28BF78C1FBD85F
:1002D000520728BF30C148BF0B6070471FB51FBD14
:1002E00010B510BD00F029F81146FFF7F7FF00F038
:1002F000B1FA00F047F803B4FFF7F2FF03BC00F0D7
:100300004FF8000072B6704762B67047EFF3108086
:1003100072B6704780F31088704730BF704702484C
:100320000249014A024B704768000020680400201F
:1003300068000020704770477047754600F02CF841
:10034000AE4605006946534620F00700854618B0C2
:1003500020B5FFF7E4FFBDE820404FF000064FF066
:1003600000074FF000084FF0000BAC46ACE8C009A6
:10037000ACE8C009ACE8C009ACE8C00921F007014D
:100380008D46704710B50446AFF300802046BDE8A7
:100390001040FFF7B0BF0000004870470000002089
:1003A00001491820ABBEFEE726000200704700009E
:1003B00082B0ADF80600BDF806004FF4C8614843AE
:1003C0000090FFE7009820B1FFE700980138009007
:1003D000F8E702B07047000080B584B000200390B9
:1003E000FFE703984EF2AF01C0F20401884205D83E
:1003F000FFE7FFE7039801300390F2E740F2600166
:10040000C2F200010020087045F21440C4F202005C
:100410000068C00600284ED5FFE745F20810C0F27C
:1004200007000290FFE702990020019061B1FFE709
:1004300045F2FC30C4F20200006800F01001012017
:1004400080EA11100190FFE70198C00720B1FFE793
:10045000029801380290E6E7029890B9FFE740F26F
:100460006301C2F20001087801304AF6AB22CAF6F5
:10047000AA22A0FB0232520802EB4202801A087044
:10048000FFE740F26200C2F200000078C00730B916
:10049000FFE7029818B1FFE700F072FA02E000F0FF
:1004A0005BFAFFE745F21C41C4F20201086840F024
:1004B0001000086013E045F21440C4F20200006826
:1004C000C00758B1FFE700F0DFF945F21C41C4F264
:1004D0000201086840F001000860FFE7FFE704B090
:1004E00080BD000081B04EF20810C4F20F00016818
:1004F00041F0010101600068009044F22C51C4F207
:100500000001086820F47040086044F22851C4F2E9
:100510000001086820F00800086044F20041C4F2BD
:100520000001086840F00800086044F22041C4F26D
:100530000001086820F00800086044F21C51C4F271
:100540000001086840F00800086044F20851C4F255
:100550000001086840F00800086001B07047000022
:100560004EF2081CC4F20F0CDCF8000040F0200032
:10057000CCF8000045F22051C4F2020144F24B30A5
:10058000C4F64F40086045F22451C4F202010868E5
:1005900040F01100086045F20041C4F20201086811
:1005A00020F01100086045F22041C4F20201086801
:1005B00020F01100086045F21C51C4F202010868E5
:1005C00040F01100086045F22C51C4F202010868A5
:1005D00020F00F10086045F22851C4F202010020FB
:1005E000086045F21052C4F20202116841F0110194
:1005F000116045F20442C4F20202116821F01101B7
:10060000116045F20842C4F20202116821F01101A2
:10061000116045F20C42C4F20202116821F011018E
:10062000116045F21C42C4F20202116841F011014E
:10063000116045F21042C4F20202116841F011014A
:1006400011604EF21C42CEF200021168052363F3E2
:10065000575111604EF20011CEF200010A6842F0CB
:1006600080420A60DCF8002042F00802CCF800204A
:1006700047F2004CC4F2000CDCF8002022F001022A
:10068000CCF8002047F2204CC4F2000CDCF800202B
:1006900022F00102CCF8002047F21C5CC4F2000CEE
:1006A000DCF8002042F00102CCF8002047F22C5C7C
:1006B000C4F2000CDCF8002022F00102CCF800208B
:1006C00047F22852C4F20002106047F21452C4F2FA
:1006D0000002106840F00100106047F20442C4F2CA
:1006E0000002106820F00100106047F20842C4F2D6
:1006F0000002106840F00100106047F20C42C4F2A2
:100700000002106820F00100106047F21C42C4F2A1
:100710000002106840F00100106047F21042C4F27D
:100720000002106840F0010010604EF20042CEF26C
:100730000002106863F35F701060086840F0080002
:10074000086070474EF21001CEF20001086820F0F8
:100750000100086044F22002C4F20002106880F038
:10076000080010604EF21802CEF200020020106065
:10077000086840F001000860704700004EF2100168
:10078000CEF20001002008604EF62052CEF20002A8
:100790001068402363F31F601060086840F0060093
:1007A0000860704781B00090009801384EF2140143
:1007B000CEF2000108604EF21801CEF200010020D6
:1007C000086001B0704700004EF21001CEF2000147
:1007D000086840F001000860704700004EF2100108
:1007E000CEF20001086820F00100086070470000A8
:1007F00040F26100C2F20000007840F69412C0F2AC
:100800000002642110FB012040F26001C2F20001ED
:10081000097800EB410040787047000040F2610029
:10082000C2F20000007840F69412C0F20002642187
:1008300010FB012040F26001C2F20001097810F8BB
:100840001100704740F26200C2F20000007800F030
:100850000100704780B582B000200190FFF752FD83
:10086000FFF740FEFFF78AFFFFF77AFEFFF74CFD28
:10087000FFE7FFF7E7FF18B1FFE700F00FF802E02E
:10088000FFF74BFDFFE7F4E740F26101C2F2000120
:100890000878013000F003000870704780B582B01E
:1008A00000208DF80700FFF7A3FF8DF80600FFE793
:1008B0009DF806100020009039B1FFE740F2620079
:1008C000C2F2000000780090FFE70098C007C0B3B4
:1008D000FFE7FFF7A3FF8DF807009DF80700FF284B
:1008E00003D1FFE7FFF77AFF14E09DF8070040F21D
:1008F0006301C2F200010978C1EBC101014440F675
:10090000C020C0F2000050F82100FFF74BFFFFF7B6
:100910005BFFFFE79DF8060064214843FFF748FDB1
:10092000FFF75CFF1920FFF743FD40F26001C2F2C0
:100930000001087801300870FFF75AFF8DF80600B3
:10094000B6E740F26001C2F20001002008706420A6
:10095000FFF72EFD02B080BD80B582B040F262018B
:10096000C2F20001002001900870FFF737FF0198E4
:1009700040F26001C2F20001087002B080BD0000C8
:1009800080B540F26201C2F2000101200870FFF759
:100990001BFF80BD020401040004010402040204E0
:1009A000020801040104010802040404040802040A
:1009B0000104000401040204020402080104010409
:1009C0000204010400080000000000000000000014
:1009D0000000000000000000000000000000000017
:1009E0000000000000000000000000000000000007
:1009F00000000000000000000004000404040404DF
:100A000005040504040803040304020402040104A9
:100A1000010400080404040403040304020402049F
:100A2000010804040404030403040204020401088A
:100A30000004000404040404050405040408030479
:100A40000304020402040104010400080000000081
:100A5000000000000000000000000000040204028A
:100A60000504040407040604FF0404020402050448
:100A7000040408040704FF04040204020B0409042C
:100A8000070406040508FF040A020A020904070411
:100A900008040708FF00000000000000000000003C
:100AA0000000000000000000000000000000000046
:100AB0000000000000000000000000000000000036
:100AC0008CEE000096D4000065BD000092B20000DC
:100AD000709F00000B8E0000847E000046770000AF
:100AE0004B6A0000B25E00008B590000B84F000056
:100AF00006470000423F0000B93B000035350000CA
:100B0000672F0000BE2C0000DC27000083230000BC
:100B1000A31F0000DD1D00009A1A0000B31700009B
:100B20005F160000EE130000C1110000D20F00009C
:100B3000400B00000000002068040000C00200001C
:040000050000026D88
:00000001FF
