:020000040000FA
:10000000680400206D02000071020000730200000D
:100010007502000077020000790200000000000075
:100020000000000000000000000000007B02000053
:100030007D020000000000007F020000C5050000F6
:10004000830200008302000083020000830200009C
:10005000830200008302000083020000830200008C
:10006000830200008302000083020000830200007C
:10007000830200008302000083020000830200006C
:10008000830200008302000083020000830200005C
:10009000830200008302000083020000830200004C
:1000A000830200008302000083020000830200003C
:1000B0008302000083020000D903000083020000D5
:1000C000830200008302000083020000830200001C
:1000D000830200008302000083020000830200000C
:1000E00083020000830200008302000083020000FC
:1000F00083020000830200008302000083020000EC
:1001000083020000830200008302000083020000DB
:1001100083020000830200008302000083020000CB
:1001200083020000830200008302000083020000BB
:1001300083020000830200008302000083020000AB
:1001400000000000000000000000000000000000AF
:10015000830200008302000083020000830200008B
:10016000000000000000000000000000000000008F
:10017000000000000000000000000000000000007F
:10018000000000000000000000000000000000006F
:10019000000000000000000000000000000000005F
:1001A000000000000000000000000000000000004F
:1001B000830200008302000083020000830200002B
:1001C000830200008302000083020000830200001B
:1001D000830200008302000083020000830200000B
:1001E00083020000830200008302000083020000FB
:1001F00083020000830200008302000083020000EB
:10020000830200008302000083020000000000005F
:1002100083020000830200008302000083020000CA
:1002200083020000830200008302000083020000BA
:1002300083020000830200008302000083020000AA
:10024000830200008302000083020000830200009A
:10025000830200008302000083020000830200008A
:1002600083020000830200008302000000F00AB84D
:10027000FEE7FEE7FEE7FEE7FEE7FEE7FEE7FEE756
:10028000FEE7FEE700F002F800F02CF80AA090E884
:10029000000C82448344AAF10107DA4501D100F041
:1002A00021F8AFF2090EBAE80F0013F0010F18BFE2
:1002B000FB1A43F001031847D0060000E0060000D7
:1002C0000023002400250026103A28BF78C1FBD85F
:1002D000520728BF30C148BF0B6070471FB51FBD14
:1002E00010B510BD00F029F81146FFF7F7FF00F038
:1002F000EFF900F047F803B4FFF7F2FF03BC00F09A
:100300004FF8000072B6704762B67047EFF3108086
:1003100072B6704780F31088704730BF704702484C
:100320000249014A024B704768000020680400201F
:1003300068000020704770477047754600F02CF841
:10034000AE4605006946534620F00700854618B0C2
:1003500020B5FFF7E4FFBDE820404FF000064FF066
:1003600000074FF000084FF0000BAC46ACE8C009A6
:10037000ACE8C009ACE8C009ACE8C00921F007014D
:100380008D46704710B50446AFF300802046BDE8A7
:100390001040FFF7B0BF0000004870470000002089
:1003A00001491820ABBEFEE726000200704700009E
:1003B00082B0ADF80600BDF806004FF4C8614843AE
:1003C0000090FFE7009820B1FFE700980138009007
:1003D000F8E702B07047000080B545F21440C4F25F
:1003E00002000068C006002816D5FFE740F2610051
:1003F000C2F20000007818B9FFE700F0FBF902E054
:1004000000F0EEF9FFE745F21C41C4F20201086872
:1004100040F01000086013E045F21440C4F20200FE
:100420000068C00758B1FFE700F06CF945F21C41C5
:10043000C4F20201086840F001000860FFE7FFE72E
:1004400080BD000081B04EF20810C4F20F000168B8
:1004500041F0010101600068009044F22C51C4F2A7
:100460000001086820F47040086044F22851C4F28A
:100470000001086820F00800086044F20041C4F25E
:100480000001086840F00800086044F22041C4F20E
:100490000001086820F00800086044F21C51C4F212
:1004A0000001086840F00800086044F20851C4F2F6
:1004B0000001086840F00800086001B070470000C3
:1004C0004EF20811C4F20F01086840F020000860E5
:1004D00045F22051C4F2020144F24B30C4F64F40C1
:1004E000086045F22451C4F20201086840F011008E
:1004F000086045F20041C4F20201086820F01100D2
:10050000086045F22041C4F20201086820F01100A1
:10051000086045F21C51C4F20201086840F0110065
:10052000086045F22C51C4F20201086820F00F1057
:10053000086045F22851C4F202010020086045F22B
:100540001051C4F20201086840F01100086045F241
:100550000441C4F20201086820F01100086045F26D
:100560000841C4F20201086820F01100086045F259
:100570000C41C4F20201086820F01100086045F245
:100580001C41C4F20201086840F01100086045F205
:100590001041C4F20201086840F0110008604EF2F8
:1005A0001C41CEF200010868052262F35750086032
:1005B0004EF20011CEF20001086840F08040086061
:1005C000704700004EF21001CEF20001086820F0E2
:1005D0000100086044F22002C4F20002106880F0BA
:1005E000080010604EF21802CEF2000200201060E7
:1005F000086840F001000860704700004EF21001EA
:10060000CEF20001002008604EF62052CEF2000229
:100610001068402363F31F601060086840F0060014
:100620000860704781B00090009801384EF21401C4
:10063000CEF2000108604EF21801CEF20001002057
:10064000086001B0704700004EF21001CEF20001C8
:10065000086840F001000860704700004EF2100189
:10066000CEF20001086820F0010008607047000029
:1006700040F26000C2F20000007840F60802C0F2CA
:100680000002642110FB012040F26201C2F200016D
:10069000097800EB410040787047000040F26000AC
:1006A000C2F20000007840F60802C0F200026421A5
:1006B00010FB012040F26201C2F20001097810F83B
:1006C0001100704740F26100C2F2000000787047EC
:1006D00080B582B000200190FFF714FEFFF7B2FE54
:1006E000FFF78CFFFFF7ECFEFFF70EFEFFE7FFF7CB
:1006F000E9FF18B1FFE700F023F802E0FFF70DFE75
:10070000FFE7F4E740F26000C2F200000078022840
:1007100007D1FFE740F26001C2F20001002008703B
:1007200007E040F26001C2F2000108780130087071
:10073000FFE740F26201C2F200010020087070473A
:1007400080B582B000208DF80700FFF7A7FF8DF875
:100750000600FFE79DF806100020009051B1FFE76A
:1007600040F26100C2F200000078002818BF0120AA
:100770000090FFE70098C00780B3FFE7FFF78EFF08
:100780008DF807009DF80700FF2803D1FFE7FFF76A
:1007900065FF0CE09DF8071040F63410C0F2000031
:1007A00050F82100FFF73EFFFFF74EFFFFE79DF8EF
:1007B000060064214843FFF7FBFDFFF74FFF0520CC
:1007C000FFF7F6FDFFF754FF8DF8060040F26201D7
:1007D000C2F20001087801300870BBE702B080BDAA
:1007E00080B540F26101C2F2000100200870FFF7FD
:1007F00035FF80BD80B540F26101C2F200010120E9
:100800000870FFF721FF80BD040204020504040400
:1008100007040604FF040402040205040404080497
:100820000704FF04040204020B040904070406047D
:100830000508FF040A020A0209040704080407085D
:1008400000000000000000000000000000000000A8
:100850000000000000000000000000000000000098
:10086000000000000000000000000000020401047D
:100870000004010402040204020801040104010846
:100880000204040404080204010400040104020434
:10089000020402080104010402040104000800002B
:1008A0000000000000000000000000000000000048
:1008B0000000000000000000000000000000000038
:1008C0000000000000000000000000000000000028
:1008D00000040004040404040504050404080304DB
:1008E00003040204020401040104000804040404D3
:1008F00003040304020402040108040404040304BE
:1009000003040204020401080004000404040404B3
:10091000050405040408030403040204020401049A
:1009200001040008000000000000000000000000BA
:1009300000000000467700004B6A0000B25E000035
:100940008B590000B84F000006470000423F0000EE
:10095000B93B000035350000672F0000BE2C0000B9
:10096000DC27000083230000A31F0000DD1D000022
:100970009A1A0000B31700005F160000EE13000083
:10098000C1110000D20F00009809000000000020F3
:0809900068040000C002000031
:040000050000026D88
:00000001FF
